{
	"contracts/test.sol": {
		"test": {
			"abi": [
				{
					"inputs": [],
					"name": "a",
					"outputs": [
						{
							"internalType": "uint256",
							"name": "",
							"type": "uint256"
						}
					],
					"stateMutability": "view",
					"type": "function"
				},
				{
					"inputs": [],
					"name": "foo",
					"outputs": [],
					"stateMutability": "nonpayable",
					"type": "function"
				}
			],
			"devdoc": {
				"kind": "dev",
				"methods": {},
				"version": 1
			},
			"evm": {
				"assembly": "    /* \"contracts/test.sol\":60:290  contract test{... */\n  mstore(0x40, 0x80)\n    /* \"contracts/test.sol\":96:98  10 */\n  0x0a\n    /* \"contracts/test.sol\":80:98  uint public a = 10 */\n  0x00\n  sstore\n    /* \"contracts/test.sol\":122:164  0x5B38Da6a701c568545dCfcB03FcB875f56beddC4 */\n  0x5b38da6a701c568545dcfcb03fcb875f56beddc4\n    /* \"contracts/test.sol\":105:164  address Addmin = 0x5B38Da6a701c568545dCfcB03FcB875f56beddC4 */\n  0x01\n  exp(0x0100, 0x00)\n  dup2\n  sload\n  dup2\n  0xffffffffffffffffffffffffffffffffffffffff\n  mul\n  not\n  and\n  swap1\n  dup4\n  0xffffffffffffffffffffffffffffffffffffffff\n  and\n  mul\n  or\n  swap1\n  sstore\n  pop\n    /* \"contracts/test.sol\":60:290  contract test{... */\n  callvalue\n  dup1\n  iszero\n  tag_1\n  jumpi\n  0x00\n  dup1\n  revert\ntag_1:\n  pop\n  dataSize(sub_0)\n  dup1\n  dataOffset(sub_0)\n  0x00\n  codecopy\n  0x00\n  return\nstop\n\nsub_0: assembly {\n        /* \"contracts/test.sol\":60:290  contract test{... */\n      mstore(0x40, 0x80)\n      callvalue\n      dup1\n      iszero\n      tag_1\n      jumpi\n      0x00\n      dup1\n      revert\n    tag_1:\n      pop\n      jumpi(tag_2, lt(calldatasize, 0x04))\n      shr(0xe0, calldataload(0x00))\n      dup1\n      0x0dbe671f\n      eq\n      tag_3\n      jumpi\n      dup1\n      0xc2985578\n      eq\n      tag_4\n      jumpi\n    tag_2:\n      0x00\n      dup1\n      revert\n        /* \"contracts/test.sol\":80:98  uint public a = 10 */\n    tag_3:\n      tag_5\n      tag_6\n      jump\t// in\n    tag_5:\n      mload(0x40)\n      tag_7\n      swap2\n      swap1\n      tag_8\n      jump\t// in\n    tag_7:\n      mload(0x40)\n      dup1\n      swap2\n      sub\n      swap1\n      return\n        /* \"contracts/test.sol\":173:287  function foo() public {... */\n    tag_4:\n      tag_9\n      tag_10\n      jump\t// in\n    tag_9:\n      stop\n        /* \"contracts/test.sol\":80:98  uint public a = 10 */\n    tag_6:\n      sload(0x00)\n      dup2\n      jump\t// out\n        /* \"contracts/test.sol\":173:287  function foo() public {... */\n    tag_10:\n        /* \"contracts/test.sol\":228:234  Addmin */\n      0x01\n      0x00\n      swap1\n      sload\n      swap1\n      0x0100\n      exp\n      swap1\n      div\n      0xffffffffffffffffffffffffffffffffffffffff\n      and\n        /* \"contracts/test.sol\":214:234  msg.sender == Addmin */\n      0xffffffffffffffffffffffffffffffffffffffff\n      and\n        /* \"contracts/test.sol\":214:224  msg.sender */\n      caller\n        /* \"contracts/test.sol\":214:234  msg.sender == Addmin */\n      0xffffffffffffffffffffffffffffffffffffffff\n      and\n      eq\n        /* \"contracts/test.sol\":206:263  require(msg.sender == Addmin, \"only admin access !!!!!!\") */\n      tag_12\n      jumpi\n      mload(0x40)\n      0x08c379a000000000000000000000000000000000000000000000000000000000\n      dup2\n      mstore\n      0x04\n      add\n      tag_13\n      swap1\n      tag_14\n      jump\t// in\n    tag_13:\n      mload(0x40)\n      dup1\n      swap2\n      sub\n      swap1\n      revert\n    tag_12:\n        /* \"contracts/test.sol\":278:279  5 */\n      0x05\n        /* \"contracts/test.sol\":274:275  a */\n      0x00\n        /* \"contracts/test.sol\":274:279  a = 5 */\n      dup2\n      swap1\n      sstore\n      pop\n        /* \"contracts/test.sol\":173:287  function foo() public {... */\n      jump\t// out\n        /* \"#utility.yul\":7:84   */\n    tag_15:\n        /* \"#utility.yul\":44:51   */\n      0x00\n        /* \"#utility.yul\":73:78   */\n      dup2\n        /* \"#utility.yul\":62:78   */\n      swap1\n      pop\n        /* \"#utility.yul\":7:84   */\n      swap2\n      swap1\n      pop\n      jump\t// out\n        /* \"#utility.yul\":90:208   */\n    tag_16:\n        /* \"#utility.yul\":177:201   */\n      tag_23\n        /* \"#utility.yul\":195:200   */\n      dup2\n        /* \"#utility.yul\":177:201   */\n      tag_15\n      jump\t// in\n    tag_23:\n        /* \"#utility.yul\":172:175   */\n      dup3\n        /* \"#utility.yul\":165:202   */\n      mstore\n        /* \"#utility.yul\":90:208   */\n      pop\n      pop\n      jump\t// out\n        /* \"#utility.yul\":214:436   */\n    tag_8:\n        /* \"#utility.yul\":307:311   */\n      0x00\n        /* \"#utility.yul\":345:347   */\n      0x20\n        /* \"#utility.yul\":334:343   */\n      dup3\n        /* \"#utility.yul\":330:348   */\n      add\n        /* \"#utility.yul\":322:348   */\n      swap1\n      pop\n        /* \"#utility.yul\":358:429   */\n      tag_25\n        /* \"#utility.yul\":426:427   */\n      0x00\n        /* \"#utility.yul\":415:424   */\n      dup4\n        /* \"#utility.yul\":411:428   */\n      add\n        /* \"#utility.yul\":402:408   */\n      dup5\n        /* \"#utility.yul\":358:429   */\n      tag_16\n      jump\t// in\n    tag_25:\n        /* \"#utility.yul\":214:436   */\n      swap3\n      swap2\n      pop\n      pop\n      jump\t// out\n        /* \"#utility.yul\":442:611   */\n    tag_17:\n        /* \"#utility.yul\":526:537   */\n      0x00\n        /* \"#utility.yul\":560:566   */\n      dup3\n        /* \"#utility.yul\":555:558   */\n      dup3\n        /* \"#utility.yul\":548:567   */\n      mstore\n        /* \"#utility.yul\":600:604   */\n      0x20\n        /* \"#utility.yul\":595:598   */\n      dup3\n        /* \"#utility.yul\":591:605   */\n      add\n        /* \"#utility.yul\":576:605   */\n      swap1\n      pop\n        /* \"#utility.yul\":442:611   */\n      swap3\n      swap2\n      pop\n      pop\n      jump\t// out\n        /* \"#utility.yul\":617:791   */\n    tag_18:\n        /* \"#utility.yul\":757:783   */\n      0x6f6e6c792061646d696e20616363657373202121212121210000000000000000\n        /* \"#utility.yul\":753:754   */\n      0x00\n        /* \"#utility.yul\":745:751   */\n      dup3\n        /* \"#utility.yul\":741:755   */\n      add\n        /* \"#utility.yul\":734:784   */\n      mstore\n        /* \"#utility.yul\":617:791   */\n      pop\n      jump\t// out\n        /* \"#utility.yul\":797:1163   */\n    tag_19:\n        /* \"#utility.yul\":939:942   */\n      0x00\n        /* \"#utility.yul\":960:1027   */\n      tag_29\n        /* \"#utility.yul\":1024:1026   */\n      0x18\n        /* \"#utility.yul\":1019:1022   */\n      dup4\n        /* \"#utility.yul\":960:1027   */\n      tag_17\n      jump\t// in\n    tag_29:\n        /* \"#utility.yul\":953:1027   */\n      swap2\n      pop\n        /* \"#utility.yul\":1036:1129   */\n      tag_30\n        /* \"#utility.yul\":1125:1128   */\n      dup3\n        /* \"#utility.yul\":1036:1129   */\n      tag_18\n      jump\t// in\n    tag_30:\n        /* \"#utility.yul\":1154:1156   */\n      0x20\n        /* \"#utility.yul\":1149:1152   */\n      dup3\n        /* \"#utility.yul\":1145:1157   */\n      add\n        /* \"#utility.yul\":1138:1157   */\n      swap1\n      pop\n        /* \"#utility.yul\":797:1163   */\n      swap2\n      swap1\n      pop\n      jump\t// out\n        /* \"#utility.yul\":1169:1588   */\n    tag_14:\n        /* \"#utility.yul\":1335:1339   */\n      0x00\n        /* \"#utility.yul\":1373:1375   */\n      0x20\n        /* \"#utility.yul\":1362:1371   */\n      dup3\n        /* \"#utility.yul\":1358:1376   */\n      add\n        /* \"#utility.yul\":1350:1376   */\n      swap1\n      pop\n        /* \"#utility.yul\":1422:1431   */\n      dup2\n        /* \"#utility.yul\":1416:1420   */\n      dup2\n        /* \"#utility.yul\":1412:1432   */\n      sub\n        /* \"#utility.yul\":1408:1409   */\n      0x00\n        /* \"#utility.yul\":1397:1406   */\n      dup4\n        /* \"#utility.yul\":1393:1410   */\n      add\n        /* \"#utility.yul\":1386:1433   */\n      mstore\n        /* \"#utility.yul\":1450:1581   */\n      tag_32\n        /* \"#utility.yul\":1576:1580   */\n      dup2\n        /* \"#utility.yul\":1450:1581   */\n      tag_19\n      jump\t// in\n    tag_32:\n        /* \"#utility.yul\":1442:1581   */\n      swap1\n      pop\n        /* \"#utility.yul\":1169:1588   */\n      swap2\n      swap1\n      pop\n      jump\t// out\n\n    auxdata: 0xa2646970667358221220a52832964a1955a3a8d5c4694563d23ee11dcdf6a837a25b41d75cb52832694d64736f6c63430008160033\n}\n",
				"bytecode": {
					"linkReferences": {},
					"object": "6080604052600a5f55735b38da6a701c568545dcfcb03fcb875f56beddc460015f6101000a81548173ffffffffffffffffffffffffffffffffffffffff021916908373ffffffffffffffffffffffffffffffffffffffff160217905550348015610067575f80fd5b506101dc806100755f395ff3fe608060405234801561000f575f80fd5b5060043610610034575f3560e01c80630dbe671f14610038578063c298557814610056575b5f80fd5b610040610060565b60405161004d9190610115565b60405180910390f35b61005e610065565b005b5f5481565b60015f9054906101000a900473ffffffffffffffffffffffffffffffffffffffff1673ffffffffffffffffffffffffffffffffffffffff163373ffffffffffffffffffffffffffffffffffffffff16146100f4576040517f08c379a00000000000000000000000000000000000000000000000000000000081526004016100eb90610188565b60405180910390fd5b60055f81905550565b5f819050919050565b61010f816100fd565b82525050565b5f6020820190506101285f830184610106565b92915050565b5f82825260208201905092915050565b7f6f6e6c792061646d696e206163636573732021212121212100000000000000005f82015250565b5f61017260188361012e565b915061017d8261013e565b602082019050919050565b5f6020820190508181035f83015261019f81610166565b905091905056fea2646970667358221220a52832964a1955a3a8d5c4694563d23ee11dcdf6a837a25b41d75cb52832694d64736f6c63430008160033",
					"opcodes": "PUSH1 0x80 PUSH1 0x40 MSTORE PUSH1 0xA PUSH0 SSTORE PUSH20 0x5B38DA6A701C568545DCFCB03FCB875F56BEDDC4 PUSH1 0x1 PUSH0 PUSH2 0x100 EXP DUP2 SLOAD DUP2 PUSH20 0xFFFFFFFFFFFFFFFFFFFFFFFFFFFFFFFFFFFFFFFF MUL NOT AND SWAP1 DUP4 PUSH20 0xFFFFFFFFFFFFFFFFFFFFFFFFFFFFFFFFFFFFFFFF AND MUL OR SWAP1 SSTORE POP CALLVALUE DUP1 ISZERO PUSH2 0x67 JUMPI PUSH0 DUP1 REVERT JUMPDEST POP PUSH2 0x1DC DUP1 PUSH2 0x75 PUSH0 CODECOPY PUSH0 RETURN INVALID PUSH1 0x80 PUSH1 0x40 MSTORE CALLVALUE DUP1 ISZERO PUSH2 0xF JUMPI PUSH0 DUP1 REVERT JUMPDEST POP PUSH1 0x4 CALLDATASIZE LT PUSH2 0x34 JUMPI PUSH0 CALLDATALOAD PUSH1 0xE0 SHR DUP1 PUSH4 0xDBE671F EQ PUSH2 0x38 JUMPI DUP1 PUSH4 0xC2985578 EQ PUSH2 0x56 JUMPI JUMPDEST PUSH0 DUP1 REVERT JUMPDEST PUSH2 0x40 PUSH2 0x60 JUMP JUMPDEST PUSH1 0x40 MLOAD PUSH2 0x4D SWAP2 SWAP1 PUSH2 0x115 JUMP JUMPDEST PUSH1 0x40 MLOAD DUP1 SWAP2 SUB SWAP1 RETURN JUMPDEST PUSH2 0x5E PUSH2 0x65 JUMP JUMPDEST STOP JUMPDEST PUSH0 SLOAD DUP2 JUMP JUMPDEST PUSH1 0x1 PUSH0 SWAP1 SLOAD SWAP1 PUSH2 0x100 EXP SWAP1 DIV PUSH20 0xFFFFFFFFFFFFFFFFFFFFFFFFFFFFFFFFFFFFFFFF AND PUSH20 0xFFFFFFFFFFFFFFFFFFFFFFFFFFFFFFFFFFFFFFFF AND CALLER PUSH20 0xFFFFFFFFFFFFFFFFFFFFFFFFFFFFFFFFFFFFFFFF AND EQ PUSH2 0xF4 JUMPI PUSH1 0x40 MLOAD PUSH32 0x8C379A000000000000000000000000000000000000000000000000000000000 DUP2 MSTORE PUSH1 0x4 ADD PUSH2 0xEB SWAP1 PUSH2 0x188 JUMP JUMPDEST PUSH1 0x40 MLOAD DUP1 SWAP2 SUB SWAP1 REVERT JUMPDEST PUSH1 0x5 PUSH0 DUP2 SWAP1 SSTORE POP JUMP JUMPDEST PUSH0 DUP2 SWAP1 POP SWAP2 SWAP1 POP JUMP JUMPDEST PUSH2 0x10F DUP2 PUSH2 0xFD JUMP JUMPDEST DUP3 MSTORE POP POP JUMP JUMPDEST PUSH0 PUSH1 0x20 DUP3 ADD SWAP1 POP PUSH2 0x128 PUSH0 DUP4 ADD DUP5 PUSH2 0x106 JUMP JUMPDEST SWAP3 SWAP2 POP POP JUMP JUMPDEST PUSH0 DUP3 DUP3 MSTORE PUSH1 0x20 DUP3 ADD SWAP1 POP SWAP3 SWAP2 POP POP JUMP JUMPDEST PUSH32 0x6F6E6C792061646D696E20616363657373202121212121210000000000000000 PUSH0 DUP3 ADD MSTORE POP JUMP JUMPDEST PUSH0 PUSH2 0x172 PUSH1 0x18 DUP4 PUSH2 0x12E JUMP JUMPDEST SWAP2 POP PUSH2 0x17D DUP3 PUSH2 0x13E JUMP JUMPDEST PUSH1 0x20 DUP3 ADD SWAP1 POP SWAP2 SWAP1 POP JUMP JUMPDEST PUSH0 PUSH1 0x20 DUP3 ADD SWAP1 POP DUP2 DUP2 SUB PUSH0 DUP4 ADD MSTORE PUSH2 0x19F DUP2 PUSH2 0x166 JUMP JUMPDEST SWAP1 POP SWAP2 SWAP1 POP JUMP INVALID LOG2 PUSH5 0x6970667358 0x22 SLT KECCAK256 0xA5 0x28 ORIGIN SWAP7 0x4A NOT SSTORE LOG3 0xA8 0xD5 0xC4 PUSH10 0x4563D23EE11DCDF6A837 LOG2 JUMPDEST COINBASE 0xD7 0x5C 0xB5 0x28 ORIGIN PUSH10 0x4D64736F6C6343000816 STOP CALLER "
				},
				"gasEstimates": {
					"creation": {
						"codeDepositCost": "95200",
						"executionCost": "46510",
						"totalCost": "141710"
					},
					"external": {
						"a()": "2402",
						"foo()": "24425"
					}
				},
				"methodIdentifiers": {
					"a()": "0dbe671f",
					"foo()": "c2985578"
				}
			},
			"storageLayout": {
				"storage": [
					{
						"astId": 4,
						"contract": "contracts/test.sol:test",
						"label": "a",
						"offset": 0,
						"slot": "0",
						"type": "t_uint256"
					},
					{
						"astId": 7,
						"contract": "contracts/test.sol:test",
						"label": "Addmin",
						"offset": 0,
						"slot": "1",
						"type": "t_address"
					}
				],
				"types": {
					"t_address": {
						"encoding": "inplace",
						"label": "address",
						"numberOfBytes": "20"
					},
					"t_uint256": {
						"encoding": "inplace",
						"label": "uint256",
						"numberOfBytes": "32"
					}
				}
			},
			"userdoc": {
				"kind": "user",
				"methods": {},
				"version": 1
			}
		}
	}
}